:100000000C9464000C948C000C948C000C94910360
:100010000C9491030C9491030C948C000C94DD02CD
:100020000C948C000C948C000C948C000C948C0020
:100030000C948C000C948C000C948C000C948C0010
:100040000C9493020C948C000C945F030C94390371
:100050000C948C000C948C000C948C000C948C00F0
:100060000C948C000C948C000200000000240027EB
:10007000002A00000000080002010000030407003D
:1000800000000000000000000000002300260029FE
:100090000001020408102040800102040810200121
:1000A000020408102000000000250028002B000496
:1000B000040404040404040202020202020303030F
:1000C000030303000A0FEB0E11241FBECFEFD8E08D
:1000D000DEBFCDBF12E0A0E0B1E0E8ECF7E202C085
:1000E00005900D92A837B107D9F726E0A8E7B2E04E
:1000F00001C01D92A734B207E1F710E0C3E6D0E0DB
:1001000004C02197FE010E949F12C236D107C9F791
:100110000E949F070C94D7130C9400002FB7F894FB
:100120006091D6027091D7028091D8029091D90245
:100130002FBF0895CF92DF92EF92FF920F931F93FC
:10014000CF93DF936C017A018B01C0E0D0E0CE1534
:10015000DF0589F0D8016D918D01D601ED91FC91FB
:100160000190F081E02DC6010995892B11F47E01E3
:1001700002C02196ECCFC701DF91CF911F910F9163
:10018000FF90EF90DF90CF9008952091BA023091C8
:10019000BB022817390771F49091B9028091B80217
:1001A000981741F0E091B902F0E0E858FD4F8081E6
:1001B00090E008958FEF9FEF089508951F93CF93D8
:1001C000DF93DC015C962D913C915D972115310503
:1001D00039F481E090E013969C938E9312973DC082
:1001E0005196ED91FC91529750969C915097892F82
:1001F00080951FB75E964C915E9741FB772770F90B
:1002000041FD6095F8944081772311F0492B01C09E
:1002100048234083E9012197F1F748E0508160FFCE
:1002200002C0592B01C058235083E9012197F1F7EF
:100230006695415099F7772321F090818923808337
:1002400003C08081982B90831FBF5C968D919C91F9
:100250005D970197F1F721E030E0C901DF91CF917F
:100260001F9108952091BA023091BB0228173907D7
:1002700071F48091B8022091B90290E0805C9F4FA8
:10028000821B910960E470E00E947012089580E082
:1002900090E008952091BA023091BB0228173907E7
:1002A000B9F49091B9028091B802981789F0E09161
:1002B000B902F0E0E858FD4F80812091B90230E0AA
:1002C0002F5F3F4F2F7333272093B90290E008959B
:1002D0008FEF9FEF08958EED92E00E94410421E0A0
:1002E000892B09F420E0822F089580E090E0892B8B
:1002F00029F00E946B0181110C94000008950E9466
:10030000D21390E0FC01ED58FF4F3491FC01EF5601
:10031000FF4F2491FC01E155FF4FE491EE2309F4D6
:100320003BC0332339F1333091F038F43130A9F048
:10033000323001F584B58F7D12C0373091F03830FE
:10034000A1F03430B9F4809180008F7D03C080919A
:1003500080008F77809380000DC084B58F7784BD37
:1003600009C08091B0008F7703C08091B0008F7D6D
:100370008093B000F0E0EE0FFF1FEB55FF4FA5910B
:10038000B4918FB7F894EC91611103C020952E239E
:1003900001C02E2B2C938FBF0895909100019813CC
:1003A00024C0E8E6F0E0E4919FEF90930001E13093
:1003B000B9F098F0E230C9F4909170009D7F90936D
:1003C000700091E09093B0009091B100987F94609C
:1003D0009093B1001092B30008C010926E0005C057
:1003E00090916F009D7F90936F0060E00C9481016D
:1003F000CF93DF9390E0FC01EF56FF4F2491FC0177
:10040000E155FF4F8491882361F190E0880F991F97
:10041000FC01E759FF4FC591D491FC01EB55FF4F0B
:10042000A591B491611109C09FB7F8948881209576
:1004300082238883EC912E230BC0623061F49FB736
:10044000F8943881822F809583238883EC912E2B1A
:100450002C939FBF06C08FB7F894E8812E2B28837A
:100460008FBFDF91CF9108953FB7F8948091DA0262
:100470009091DB02A091DC02B091DD0226B5A89B31
:1004800005C02F3F19F00196A11DB11D3FBFBA2F26
:10049000A92F982F8827820F911DA11DB11DBC0186
:1004A000CD0143E0660F771F881F991F4A95D1F74A
:1004B00008958F929F92AF92BF92CF92DF92EF9268
:1004C000FF926B017C010E9434024B015C01C1145C
:1004D000D104E104F104F1F00E943402DC01CB010B
:1004E00088199909AA09BB09883E9340A105B1055D
:1004F00070F321E0C21AD108E108F10888EE880EF5
:1005000083E0981EA11CB11CC114D104E104F104C4
:1005100019F7DDCFFF90EF90DF90CF90BF90AF90B5
:100520009F908F9008951F920F920FB60F921124F3
:100530002F933F938F939F93AF93BF938091D60256
:100540009091D702A091D802B091D9023091D502F2
:1005500026E0230F2D3720F40296A11DB11D05C002
:1005600029E8230F0396A11DB11D2093D502809386
:10057000D6029093D702A093D802B093D90280916B
:10058000DA029091DB02A091DC02B091DD020196CB
:10059000A11DB11D8093DA029093DB02A093DC02CF
:1005A000B093DD02BF91AF919F918F913F912F91B9
:1005B0000F900FBE0F901F9018951F920F920FB6BD
:1005C0000F9211242F933F934F935F936F937F93D9
:1005D0008F939F93AF93BF93EF93FF938091D1023B
:1005E0009091D202A091D302B091D402892B8A2B90
:1005F0008B2B51F18091D002E091CE02F091CF028D
:100600009081892780838091D1029091D202A0911C
:10061000D302B091D402181619061A061B06C4F4A8
:100620008091D1029091D202A091D302B091D402D4
:100630000197A109B1098093D1029093D202A093AE
:10064000D302B093D40204C0809100010E94CD0176
:10065000FF91EF91BF91AF919F918F917F916F919A
:100660005F914F913F912F910F900FBE0F901F9070
:1006700018951F920F920FB60F9211242F933F934C
:100680004F935F936F937F938F939F93AF93BF939A
:10069000EF93FF938EED92E00E941507FF91EF918B
:1006A000BF91AF919F918F917F916F915F914F918A
:1006B0003F912F910F900FBE0F901F9018951F9292
:1006C0000F920FB60F9211242F938F939F93EF9356
:1006D000FF93E091EE02F091EF028081E091F4024D
:1006E000F091F50282FD12C090818091F7028F5F38
:1006F0008F732091F802821751F0E091F702F0E039
:10070000E252FD4F958F8093F70201C08081FF91E7
:10071000EF919F918F912F910F900FBE0F901F908F
:1007200018951F920F920FB60F9211242F933F939B
:100730004F935F936F937F938F939F93AF93BF93E9
:10074000EF93FF93E091BA02F091BB02309709F466
:1007500051C0968DA685B785858591FF04C09C9173
:10076000892329F447C09C91892309F043C0A389B8
:10077000B4899C918589809589238C9386899789F2
:100780000197F1F7608D718DA685B785558538E0A5
:1007900020E0CB010197F1F7822F90E095958795A6
:1007A000282F4C91452309F02068315091F7868D10
:1007B00081FD20958091B80290E001968F73992772
:1007C0003091B902381749F0A091B802B0E0A858AA
:1007D000BD4F2C938093B80203C0868D8160868FB5
:1007E000828D938D0197F1F7A389B4899C918589B6
:1007F000892B8C93FF91EF91BF91AF919F918F9136
:100800007F916F915F914F913F912F910F900FBE0C
:100810000F901F901895CF93DF93EC0188859985F1
:10082000009711F00E943A138E8187FD05C060E0A9
:10083000DF91CF910C94F801DF91CF910895FC01E5
:10084000918D828D981761F0828DDF01A80FB11D07
:100850005D968C91928D9F5F9F73928F90E008952B
:100860008FEF9FEF0895FC01918D828D981731F0E5
:10087000828DE80FF11D858D90E008958FEF9FEF39
:100880000895FC01918D228D892F90E0805C9F4F0F
:10089000821B91098F7399270895CF93DF93EC0101
:1008A00061E085E00E94F801209711F460E004C047
:1008B000CF3FD10531F461E085E0DF91CF910C9419
:1008C0008101E8E7F0E0E491E330F9F048F4E13049
:1008D000B9F0E230A1F584B5806284BDC8BD34C0F2
:1008E000E730E9F0E83019F1E43049F58091800013
:1008F000806280938000D0938B00C0938A0024C0D4
:1009000084B5806884BDC7BD1FC0809180008068A9
:1009100080938000D0938900C093880015C0809197
:10092000B00080688093B000C093B3000DC0809188
:10093000B00080628093B000C093B40005C0C0389E
:10094000D1050CF0B8CFB2CFDF91CF9108950F93BE
:100950001F93CF93DF93CDB7DEB729970FB6F894E7
:10096000DEBF0FBECDBF8091200490912104892B62
:1009700009F47FC10E9434020091260410912704DB
:100980002091280430912904DC01CB01801B910BBC
:10099000A20BB30B8C329140A105B10558F3F8942A
:1009A00080911C0490911D049A838983A091200456
:1009B000B0912104FD0131968C91898780911804B2
:1009C000A0912A04B0912B04882309F417C11B823B
:1009D000AB32B10509F058C09BB180912C04982B23
:1009E00098879BB1809589238F838F818C8389859C
:1009F00087FF02C088858C8358856F8149853C813B
:100A00002B8189819A815BB9262F3BB900C046FDB5
:100A1000252F6BB900C05BB9362F2BB900C045FD3F
:100A2000352F6BB900C05BB9262F3BB900C044FD20
:100A3000252F6BB900C05BB9362F2BB900C043FD21
:100A4000352F6BB900C05BB9262F3BB900C042FD02
:100A5000252F6BB900C05BB9362F2BB900C041FD03
:100A6000352F6BB900C05BB9262F3BB900C040FDE4
:100A7000252F6BB901975BB9362F2BB9419147FDF3
:100A8000352F6BB901F6B6C0A532B10509F058C0D3
:100A900095B180912C04982B988795B180958923E6
:100AA0008F838F818C83898587FF02C088858C83A3
:100AB00058856F8149853C812B8189819A8155B9FF
:100AC000262F35B900C046FD252F65B900C055B9A0
:100AD000362F25B900C045FD352F65B900C055B981
:100AE000262F35B900C044FD252F65B900C055B982
:100AF000362F25B900C043FD352F65B900C055B963
:100B0000262F35B900C042FD252F65B900C055B963
:100B1000362F25B900C041FD352F65B900C055B944
:100B2000262F35B900C040FD252F65B9019755B96D
:100B3000362F25B9419147FD352F65B901F65AC0C9
:100B4000989709F08BC098B180912C04982B9887C6
:100B500098B1809589238F838F818C83898587FFC6
:100B600002C088858C8358856F8149853C812B81A3
:100B700089819A8158B9262F38B900C046FD252FA2
:100B800068B900C058B9362F28B900C045FD352FC7
:100B900068B900C058B9262F38B900C044FD252FC8
:100BA00068B900C058B9362F28B900C043FD352FA9
:100BB00068B900C058B9262F38B900C042FD252FAA
:100BC00068B900C058B9362F28B900C041FD352F8B
:100BD00068B900C058B9262F38B900C040FD252F8C
:100BE00068B9019758B9362F28B9419147FD352F7B
:100BF00068B901F649873C832B832EC09C91809174
:100C00002C04982B98879C91809589238F838F81C2
:100C10008E8388E08D8358856F8149853D812E8143
:100C200089819A815C9347FD252F2C93262F3A9535
:100C300031F0441F6C9300C000C000C0F3CF6C9330
:100C4000000038E04191019769F7B0932B04A0931D
:100C50002A0449873D832E839A83898378940E944E
:100C600034026093260470932704809328049093A1
:100C7000290429960FB6F894DEBF0FBECDBFDF91D1
:100C8000CF911F910F9108958F929F92AF92BF9233
:100C9000CF92DF92EF92FF9220911A0430911B04C1
:100CA0008217930708F052C04B01AA24BB24E82DF9
:100CB000C52ED62EE72EFF24FC2D342F20911F04A5
:100CC000222361F0829E40011124E92DC29E600121
:100CD0001124FD2D429FD00111243B2FF0902504BB
:100CE000E0902204A0912004B0912104FE1008C0DD
:100CF000AC01440F551F840F951F8A0F9B1F14C012
:100D0000880F991F880F991F8A0F9B1F472F552700
:100D100066277727DC01AF0DB11D222321F0429F0A
:100D2000A0011124452F4C9320912204DC01A20F35
:100D3000B11DEC9320912304DC01A20FB11DFC93A3
:100D400020912404FC01E20FF11D3083FF90EF900D
:100D5000DF90CF90BF90AF909F908F900895CF93EA
:100D6000DF93C0E0D0E040E050E0BA01CE010E9445
:100D700044062196C639D105B1F7DF91CF910C9485
:100D8000A704272F9CEF960F39E1639FB001112430
:100D9000923050F445E0249F600D711D11249B0199
:100DA000280F311DC901089594E0981BAB0135E06F
:100DB000939F400D511D1124CA01820F911D08956A
:100DC0000F931F938095853560F4682F660F860F0B
:100DD000282F209590E0A0E0B0E0BC01CD01822B4F
:100DE00021C08A3A80F48555982F990F980F692F62
:100DF0006095462F50E060E070E08A019B01192B5E
:100E0000C901B8010FC08A5A682F660F860F282FB4
:100E1000209590E0A0E0B0E0DC0199278827BC0194
:100E2000CD01722B1F910F910895FC01848DDF017C
:100E3000A80FB11DA35ABF4F2C91848D90E001964D
:100E40008F739927848FA689B7892C93A089B1893C
:100E50008C9180648C93938D848D981306C0028846
:100E6000F389E02D80818F7D80830895EF92FF923A
:100E70000F931F93CF93DF93EC0181E0888F9B8DBD
:100E80008C8D981305C0E889F989808185FD24C07F
:100E9000F62E0B8D10E00F5F1F4F0F731127E02E02
:100EA0008C8DE8120CC00FB607FCFACFE889F989DF
:100EB000808185FFF5CFCE010E941507F1CF8B8D84
:100EC000FE01E80FF11DE35AFF4FF0820B8FEA8914
:100ED000FB898081806207C0EE89FF896083E88991
:100EE000F98980818064808381E090E0DF91CF91F7
:100EF0001F910F91FF90EF900895CF93DF93EC0136
:100F0000888D8823C9F0EA89FB89808185FD05C029
:100F1000A889B9898C9186FD0FC00FB607FCF5CF63
:100F2000808185FFF2CFA889B9898C9185FFEDCFAB
:100F3000CE010E941507E7CFDF91CF910895CF939F
:100F4000DF93CDB7DEB729970FB6F894DEBF0FBE9B
:100F5000CDBF789484B5826084BD84B5816084BD42
:100F600085B5826085BD85B5816085BD80916E0047
:100F7000816080936E001092810080918100826078
:100F800080938100809181008160809381008091B5
:100F900080008160809380008091B10084608093A4
:100FA000B1008091B00081608093B00080917A00A0
:100FB000846080937A0080917A00826080937A00C6
:100FC00080917A008E7F80937A0080917A00806889
:100FD00080937A001092C1008BE191E09A8389831B
:100FE000EBE0F1E0F887EF83E981FA81619171919B
:100FF000FA83E98388EE93E00E9470128B012B0143
:10100000770F66087708EF81F88521903190F8878F
:10101000EF8380910001833029F4E8E6F0E0F49159
:10102000F9877BC08F3F09F0C8C183E0809300013E
:10103000E8E6F0E084918F3F09F4BFC1813019F1F7
:10104000823009F444C0811167C014BC15BC84B55A
:10105000826084BD85B5816085BDE2EBF0E084915E
:10106000E82FF0E0EE0FFF1FEB55FF4F85919491B5
:101070009093C1028093C002E4E9F0E084918093F0
:10108000BF0219864DC0109280001092810080919D
:1010900081008860809381008091810081608093CD
:1010A0008100E2EBF0E08491E82FF0E0EE0FFF1F0B
:1010B000EB55FF4F859194919093BE028093BD02B2
:1010C000E4E9F0E084918093BC02F1E023C0109247
:1010D000B0001092B1008091B00082608093B000A7
:1010E0008091B10081608093B100E2EBF0E08491E7
:1010F000E82FF0E0EE0FFF1FEB55FF4F8591949125
:101100009093CF028093CE02E4E9F0E08491809343
:10111000D002F2E0F98704C08987298527FD4DC1F7
:1011200061E083E00E94F8014101A12CB12C898586
:101130008D7F09F0BDC060E079E08DE390E0A5010E
:1011400094010E94DC102B833C834D835E836901F4
:101150007A0181E0C81AD108E108F1089FEFC916A9
:10116000D104E104F10409F008F44DC060E271EA31
:1011700087E090E0A50194010E94DC1069017A01EA
:10118000E1E0CE1AD108E108F108F985F23001F565
:101190002FEFC216D104E104F10409F008F419C6D6
:1011A00068E478EE81E090E0A50194010E94DC10F3
:1011B00069017A0181E0C81AD108E108F1089FEFBE
:1011C000C916D104E104F10409F0E0F583E069C037
:1011D000EFEFCE16D104E104F104B9F0B0F064E20F
:1011E00074EF80E090E0A50194010E94DC10690199
:1011F0007A01F1E0CF1AD108E108F108298522230C
:1012000009F4C5C5BBC581E001C082E02985211173
:1012100048C013C08B819C81AD81BE812AE0B59509
:10122000A795979587952A95D1F76C017D01E1E007
:10123000CE1AD108E108F10885E095B5987F892B91
:1012400085BD6FC064E274EF80E090E0A501940179
:101250000E94DC1069017A01F1E0CF1AD108E1089F
:10126000F1082FEFC216D104E104F10409F008F4EB
:1012700053C562E17AE780E090E0A50194010E9405
:10128000DC1069017A0181E0C81AD108E108F1088F
:101290009FEFC916D104E104F10411F008F03EC536
:1012A00085E09091B100987F892B8093B10039C07F
:1012B00060E079E08DE390E0A50194010E94DC10EC
:1012C00069017A0181E0C81AD108E108F108C11466
:1012D000D10491E0E906F10488F064E274EF80E063
:1012E00090E0A50194010E94DC1069017A01E1E01F
:1012F000CE1AD108E108F10893E001C091E0F98528
:10130000F13079F480918100887F892B809381006E
:10131000411451046104710449F42FEF3FEFA90116
:101320002BC0411451046104710469F09101220F32
:10133000331FD8010E94841228EE33E040E050E0D1
:101340000E940E1103C02FEF3FEFA9018985813064
:1013500099F0823019F1811130C0C7BC2093C602C8
:101360003093C7024093C8025093C90280916E0027
:10137000826080936E0021C0D0928900C092880064
:101380002093C2023093C3024093C4025093C5021B
:1013900080916F00826080936F000FC0C092B30095
:1013A0002093D1023093D2024093D3025093D402BF
:1013B00080917000826080937000C301B2010E942E
:1013C000771126E636E646EA5FE30E94DB110E94CB
:1013D0003F11072E000C880B990B0E94590283E0E5
:1013E0000E94CD01E981FA81EB52F14009F0FCCD78
:1013F00000E010E0C8010E944D046EE170E080E062
:1014000090E00E9459020B5F1F4F043081E01807E3
:1014100089F70FEF10E0C8010E944D046EE170E003
:1014200080E090E00E945902055011090B3F9FEFA8
:10143000190789F710922E0410922D048FEF90E077
:101440009093300480932F0483E090E0A0E0B0E01C
:101450008093310490933204A0933304B093340406
:101460000E948E0060933504709336048093370495
:10147000909338040E948E006B017C016093CA0235
:101480007093CB028093CC029093CD020E948E0089
:10149000DC01CB018C199D09AE09BF0980329E4445
:1014A000A105B10508F076C00E948E006093390452
:1014B00070933A0480933B0490933C04009135046C
:1014C000109136042091370430913804DC01CB01AF
:1014D000801B910BA20BB30B0091310410913204CD
:1014E000209133043091340480179107A207B30789
:1014F00068F2712C0EE314E0212C312CF8013197A5
:101500005080F8016080C10169E170E00E947012B2
:1015100080912D04860F0E94E0064B015C01672D2F
:10152000752D862D0E94C106B501A4010E944406B6
:101530000E5F1F4F3394211429E13206F9F673949C
:1015400086E07812D7CF0E94A70480912D04909155
:101550002E04019690932E0480932D0420912F0445
:10156000309130048217930721F410922E041092C8
:101570002D048091390490913A04A0913B04B091DC
:101580003C048093350490933604A0933704B093C1
:1015900038047CCF0E94AF061092700410926F0442
:1015A0008FEF90E090937204809371048AE090E052
:1015B000A0E0B0E08093730490937404A09375044A
:1015C000B09376040E948E00609377047093780441
:1015D0008093790490937A040E948E006B017C01C1
:1015E0006093CA027093CB028093CC029093CD0299
:1015F0000E948E00DC01CB018C199D09AE09BF0948
:1016000080329E44A105B10508F07BC00E948E0087
:1016100060937B0470937C0480937D0490937E049C
:1016200000917704109178042091790430917A0424
:10163000DC01CB01801B910BA20BB30B0091730457
:1016400010917404209175043091760480179107ED
:10165000A207B30768F2212C312C712C00E010E0B6
:10166000A4E06A2EC801820D931D64E170E00E941F
:101670007012462E512C80916F04840D0E94E0065A
:101680004B015C01672D752D862D0E94C106B501A9
:10169000A4010E9444065394F5E05F12ECCF6A94D3
:1016A00013952FEF6212DECF73948BEF381A94E00C
:1016B0007912D4CF0E94A70480916F049091700496
:1016C00001969093700480936F042091710430917F
:1016D00072048217930721F41092700410926F0421
:1016E00080917B0490917C04A0917D04B0917E0454
:1016F0008093770490937804A0937904B0937A044C
:1017000077CF0E94AF061092800410927F0484E687
:1017100090E0A0E0B0E08093810490938204A093D5
:101720008304B0938404EDE8F4E010821182128205
:1017300013821482158216821782108611861286F1
:1017400013861486158616861786108A118A128AC1
:10175000138A749624E0ED3DF20739F70E948E005B
:101760006093850470938604809387049093880423
:101770000E948E006093CA027093CB028093CC02C9
:101780009093CD02F5E02F2E312C0E948E00009117
:10179000CA021091CB022091CC023091CD02DC0123
:1017A000CB01801B910BA20BB30B80329E44A10591
:1017B000B10508F0A7C00E948E0060938904709361
:1017C0008A0480938B0490938C040091850410917B
:1017D00086042091870430918804DC01CB01801BB2
:1017E000910BA20BB30B0091810410918204209104
:1017F00083043091840480179107A207B30728F26D
:10180000EDE8AE2EE4E0BE2EC12CD12C10E0450157
:10181000E12CF12C80917F049091800497012C0D94
:101820003D1D820F931FB1010E9470129A8389831C
:1018300004E00E19892B81F40E94CE102FEF30E0C6
:1018400040E050E00E94DC10862F0E94E006F40188
:101850006083718382839383F401419051906190FE
:1018600071904F01612F7981802F0E94C106B301D1
:10187000A2010E94440629813A812150310910F4C5
:1018800024E030E0612F722F802F0E94C10640E0DB
:1018900050E0BA010E9444062FEFE21AF20A85E0F6
:1018A000E816F10409F0B6CF1F5F94E1A90EB11C50
:1018B000E5E0CE0ED11C143009F0A9CF0E94A70498
:1018C00080917F049091800401968530910529F0E4
:1018D0009093800480937F0404C01092800410923F
:1018E0007F048091890490918A04A0918B04B09127
:1018F0008C048093850490938604A0938704B0930E
:10190000880443CF0E94AF061092DE041092DD04DB
:1019100084E690E0A0E0B0E08093DF049093E004E0
:10192000A093E104B093E204EBEEF4E010821182A4
:1019300012821382148215821682178210861186F3
:10194000128613861486158616861786108A118AC3
:10195000128A138A749625E0EB33F20739F70E9456
:101960008E006093E3047093E4048093E504909305
:10197000E6040E948E006093CA027093CB028093AB
:10198000CC029093CD020E948E000091CA02109169
:10199000CB022091CC023091CD02DC01CB01801B27
:1019A000910BA20BB30B80329E44A105B10508F048
:1019B000E7C00E948E006093E7047093E804809370
:1019C000E9049093EA040091E3041091E404209167
:1019D000E5043091E604DC01CB01801B910BA20BE6
:1019E000B30B0091DF041091E0042091E1043091E9
:1019F000E20480179107A207B30728F26BEE462E88
:101A000064E0562E212C312C198274E0672E62017D
:101A1000E12CF12C8091DD049091DE049701220DE0
:101A2000331D820F931F6AE070E00E9470128C01D8
:101A300005972CF089E090E0801B910B8C01962D8E
:101A40009E199B83702E0115110581F40E94CE1002
:101A50002FEF30E040E050E00E94DC10862F0E9423
:101A6000E006F6016083718382839383F60181909F
:101A70009190A190B1906F016981772D8B810E9427
:101A8000C106B501A4010E94440602301105F1F01F
:101A90009CF401151105B9F001301105C9F56981F2
:101AA00070E08B810E94C10640E050E0BA010E94C4
:101AB0004406698172E024C00330110591F00430BE
:101AC0001105E1F025C0698171E01AC0698171E0FA
:101AD0008B810E94C10640E050E0BA010E9444069A
:101AE0000DC0698172E08B810E94C10640E050E028
:101AF000BA010E944406698174E002C0698173E002
:101B00008B810E94C10640E050E0BA010E94440669
:101B1000FFEFEF1AFF0A25E0E216F10409F07ACF91
:101B200089818F5F898394E1490E511CE5E02E0E77
:101B3000311C843009F06BCF0E94A7048091DD0432
:101B40009091DE0401968A30910529F09093DE048D
:101B50008093DD0404C01092DE041092DD048091B5
:101B6000E7049091E804A091E904B091EA0480931D
:101B7000E3049093E404A093E504B093E60403CF58
:101B80000E94AF0689E090E090933C0580933B056E
:101B900088EE93E0A0E0B0E080933D0590933E0591
:101BA000A0933F05B09340050E948E0060934105CD
:101BB0007093420580934305909344050E948E00E4
:101BC0004B015C016093CA027093CB028093CC02FC
:101BD0009093CD0239E1532E45E0642E59E0E52E75
:101BE000F12C0E948E00DC01CB0188199909AA0909
:101BF000BB0980329E44A105B10508F088C00E944F
:101C00008E00609345057093460580934705909339
:101C100048050091410510914205209143053091FE
:101C20004405DC01CB01801B910BA20BB30B00918F
:101C30003D0510913E0520913F05309140058017EC
:101C40009107A207B30768F2412C00E010E0702E64
:101C5000212C312C609E6001619ED00C11242091BA
:101C60003B0530913C05529EC001539E900D1124BE
:101C7000FC01EC0DFD1DE20DF31DE75BFA4F8081C9
:101C8000642D772D882341F0822D0E94C1064FEFED
:101C90005FEF6FEF70E006C0822D0E94C10640E04A
:101CA00050E0BA010E9444062FEF221A320A85E062
:101CB00028163104A1F60F5F1F4F0530110539F6C4
:101CC000439496E04912C1CF0E94A70480913B053E
:101CD00090913C05019797FD05C090933C0580933A
:101CE0003B0504C0F0923C05E0923B058091450520
:101CF00090914605A0914705B09148058093410514
:101D000090934205A0934305B09344056ACF0E9487
:101D1000AF060E9475018ECB84E0C3CA69E07DE303
:101D200080E090E0A50194010E94DC1069017A0135
:101D300081E0C81AD108E108F1089FEFC916D10463
:101D4000E104F104C9F0C0F08B819C81AD81BE81BA
:101D50002AE0B595A795979587952A95D1F76C01B7
:101D60007D01E1E0CE1AD108E108F108F985FF23F1
:101D700009F462CA87E095CA86E048CAEFEFCE163A
:101D8000D104E104F10409F048F684E03FCA8FEF82
:101D9000C816D104E104F104D1F0C8F069E07DE394
:101DA00080E090E0A50194010E94DC1069017A01B5
:101DB000F1E0CF1AD108E108F1082FEFC216D104E3
:101DC000E104F10411F008F025CA84E036CA83E08A
:101DD00034CA82E066CA8BE692E09093FA0380935D
:101DE000F9038091BA029091BB02895F934071F42C
:101DF000E0910C04F0910D04908180910E04809587
:101E0000892380831092BB021092BA0288E194E089
:101E10000C940B040F931F93CF93DF93CDB7DEB7D2
:101E200065970FB6F894DEBF0FBECDBF1092E102EA
:101E30001092E00288EE93E0A0E0B0E08093E2022E
:101E40009093E302A093E402B093E5028BE592E065
:101E50009093DF028093DE0285EC90E09093EB029A
:101E60008093EA0284EC90E09093ED028093EC0280
:101E700080EC90E09093EF028093EE0281EC90E092
:101E80009093F1028093F00282EC90E09093F30241
:101E90008093F20286EC90E09093F5028093F40236
:101EA0001092F7021092F8021092F9021092FA02C0
:101EB00081E0809318041092190410921B04109270
:101EC0001A0410921D0410921C049FEF90931E049C
:101ED00010921F0410922104109220048093220477
:101EE0001092230492E0909324048093250410928E
:101EF000260410922704109228041092290422E349
:101F0000EBE2F1E0ADE3B4E001900D922A95E1F748
:101F10002AEFEDE5F1E0A9E4B5E001900D922A95F4
:101F2000E1F71A8218861F86188A198A1A8A8E87FC
:101F30008B871C869D87898302EC11E01E830D83AD
:101F400082EC91E00E94A5129A878987009759F048
:101F5000FC019801119221503040E1F786E990E0B0
:101F60009C838B8304C01E821D821C821B8282E0A4
:101F70008F838A81882341F061E082E00E94F8012A
:101F800060E082E00E948101E1EBF0E0E491F0E0AA
:101F9000EE0FFF1FEB55FF4F859194919C8B8B8B20
:101FA000E3E9F0E0E491ED8B85E1FE013196A8E1F3
:101FB000B4E001900D928A95E1F7CE0101960E945E
:101FC0000B0480911E0487FD08C061E00E94F801A7
:101FD00060E080911E040E94810161E06093190419
:101FE0001092FC031092FB0388EE93E0A0E0B0E0B7
:101FF0008093FD039093FE03A093FF03B09300042E
:102000008BE692E09093FA038093F9031092100408
:1020100010920F04109212041092110410921404E2
:102020001092130410921604109215048091170454
:102030008E7F8D7F8093170486958170682788E056
:102040000E94810161E088E00E94F801E9E9F0E086
:10205000E491E0930904E7EBF0E0E491F0E0EE0FA7
:10206000FF1FEB55FF4F8591949190930B04809344
:102070000A0460E087E00E94F8018091170481FD66
:1020800004C061E087E00E94810187E0809305043D
:10209000E8E9F0E0E491E0930604E6EBF0E0E49197
:1020A000F0E0EE0FFF1FE957FF4F85919491909359
:1020B0000804809307041092850310928403109201
:1020C0008703109288031092820310928303109268
:1020D000800389E893E090937C0380937B038EEDEB
:1020E00092E09093F8038093F70365960FB6F89407
:1020F000DEBF0FBECDBFDF91CF911F910F9108952D
:102100008F929F92AF92BF92CF92DF92EF92FF9207
:10211000CF93DF93EC01688179818A819B8161157E
:1021200071058105910521F464E279ED8BE597E075
:102130002DE133EF41E050E00E94DC1049015A01EB
:102140009B01AC01A7EAB1E40E94FB106B017C018A
:10215000ACEEB4EFA50194010E940911DC01CB01A2
:102160008C0D9D1DAE1DBF1DB7FF03C00197A109BA
:10217000B04888839983AA83BB83BC01CD019F7734
:10218000DF91CF91FF90EF90DF90CF90BF90AF9015
:102190009F908F9008950E948010089581E091E0B3
:1021A0000E94801008956093010170930201809352
:1021B0000301909304010895052E97FB1EF40094EB
:1021C0000E94F31057FD07D00E940E1107FC03D0A8
:1021D0004EF40C94F31050954095309521953F4F57
:1021E0004F4F5F4F089590958095709561957F4F03
:1021F0008F4F9F4F08950E943011A59F900DB49F5F
:10220000900DA49F800D911D11240895B7FF0C948B
:10221000FB100E94FB10821B930B0895A1E21A2E63
:10222000AA1BBB1BFD010DC0AA1FBB1FEE1FFF1F7A
:10223000A217B307E407F50720F0A21BB30BE40BCA
:10224000F50B661F771F881F991F1A9469F7609511
:102250007095809590959B01AC01BD01CF010895CB
:10226000A29FB001B39FC001A39F700D811D1124D7
:10227000911DB29F700D811D1124911D08950E9422
:1022800046116894B1110C94D51108950E94BA11A9
:1022900088F09F5798F0B92F9927B751B0F0E1F027
:1022A000660F771F881F991F1AF0BA95C9F714C0D7
:1022B000B13091F00E94D411B1E008950C94D41182
:1022C000672F782F8827B85F39F0B93FCCF3869510
:1022D00077956795B395D9F73EF49095809570956D
:1022E00061957F4F8F4F9F4F0895E89409C097FBEA
:1022F0003EF490958095709561957F4F8F4F9F4FDD
:102300009923A9F0F92F96E9BB279395F695879520
:1023100077956795B795F111F8CFFAF4BB0F11F4E3
:1023200060FF1BC06F5F7F4F8F4F9F4F16C088238A
:1023300011F096E911C0772321F09EE8872F762FC0
:1023400005C0662371F096E8862F70E060E02AF001
:102350009A95660F771F881FDAF7880F96958795ED
:1023600097F9089557FD9058440F551F59F05F3F56
:1023700071F04795880F97FB991F61F09F3F79F0A7
:1023800087950895121613061406551FF2CF469529
:10239000F1DF08C0161617061806991FF1CF8695AB
:1023A0007105610508940895E894BB27662777278F
:1023B000CB0197F908950E94EE110C945F120E94D0
:1023C000511238F00E94581220F0952311F00C940D
:1023D00048120C944E1211240C94D5110E94B21183
:1023E00070F3959FC1F3950F50E0551F629FF00168
:1023F000729FBB27F00DB11D639FAA27F00DB11D81
:10240000AA1F649F6627B00DA11D661F829F222709
:10241000B00DA11D621F739FB00DA11D621F839F90
:10242000A00D611D221F749F3327A00D611D231F66
:10243000849F600D211D822F762F6A2F11249F57B4
:1024400050409AF0F1F088234AF0EE0FFF1FBB1FB7
:10245000661F771F881F91505040A9F79E3F510576
:1024600080F00C9448120C94D5115F3FE4F3983E31
:10247000D4F3869577956795B795F795E7959F5F20
:10248000C1F7FE2B880F911D9695879597F90895B2
:1024900097F99F6780E870E060E008959FEF80EC17
:1024A000089500240A9416161706180609060895BA
:1024B00000240A9412161306140605060895092E20
:1024C0000394000C11F4882352F0BB0F40F4BF2B8F
:1024D00011F460FF04C06F5F7F4F8F4F9F4F0895CF
:1024E00097FB072E16F4009407D077FD09D00E94C1
:1024F0008B1207FC05D03EF4909581959F4F08956F
:10250000709561957F4F08950E943011B7FF08952F
:10251000821B930B0895AA1BBB1B51E107C0AA1F86
:10252000BB1FA617B70710F0A61BB70B881F991F74
:102530005A95A9F780959095BC01CD010895EE0FAD
:10254000FF1F0590F491E02D0994CF93DF93823023
:10255000910510F482E090E0E0914506F091460686
:1025600020E030E0C0E0D0E0309711F140815181AF
:1025700048175907C0F04817590761F482819381C1
:10258000209719F09B838A832BC0909346068093F3
:10259000450626C02115310519F04217530718F4D6
:1025A0009A01BE01DF01EF010280F381E02DDCCF53
:1025B0002115310509F1281B390B2430310590F420
:1025C00012968D919C9113976115710521F0FB0175
:1025D0009383828304C09093460680934506FD0151
:1025E000329644C0FD01E20FF31F81939193225074
:1025F00031092D933C933AC0209143063091440613
:10260000232B41F4209107013091080130934406B7
:1026100020934306209105013091060121153105D3
:1026200041F42DB73EB74091090150910A01241B96
:10263000350BE0914306F0914406E217F307A0F44E
:102640002E1B3F0B2817390778F0AC014E5F5F4F08
:102650002417350748F04E0F5F1F509344064093F0
:1026600043068193919302C0E0E0F0E0CF01DF9157
:10267000CF9108950F931F93CF93DF93009709F4A1
:102680008CC0FC0132971382128200914506109192
:1026900046060115110581F420813181820F931FB7
:1026A00020914306309144062817390779F5F093B5
:1026B0004406E093430671C0D80140E050E0AE17F5
:1026C000BF0750F412962D913C911397AD0121153F
:1026D000310509F1D901F3CF9D01DA01338322835A
:1026E00060817181860F971F8217930769F4EC014F
:1026F00028813981260F371F2E5F3F4F318320837A
:102700008A819B8193838283452B29F4F09346062B
:10271000E093450642C01396FC93EE931297ED01A9
:10272000499159919E01240F351FE217F30771F467
:1027300080819181840F951F029611969C938E93B0
:102740008281938113969C938E931297E0E0F0E040
:10275000D80112968D919C911397009719F0F8016A
:102760008C01F6CF8D919C9198012E5F3F4F820F87
:10277000931F20914306309144062817390769F4C6
:10278000309729F4109246061092450602C0138233
:1027900012821093440600934306DF91CF911F915C
:1027A0000F91089581E090E0F8940C94D71310E015
:1027B000C3E6D0E004C0FE010E949F122196C436F9
:0827C000D107C9F7F894FFCF1F
:1027C800FF010000000000470680000601C400C4A5
:1027D80000DC00C4000000F700060104000800083F
:1027E80000040004000400040004000000000100CC
:1027F80002000300040104020403040404040304A3
:1028080002040104000300020001000101010201A9
:102818000302030303030203010201020200010190
:102828000100000100010000010001000001000199
:10283800000001010100000001000000010100008A
:10284800000001000000000100000001010100007B
:102858000101010000000001000001010100000168
:10286800000000000101010000010101000000005A
:102878000100000101010000000001000001010148
:102888000000010001000001000100000101010039
:10289800000000010000000001000001010100002B
:1028A800010000000001010100000000010000011A
:1028B8000101000001010100000100000000010108
:1028C80001000001000100000101010000010101F7
:1028D80000000000010000000001000000000100ED
:1028E80000000001000001010100000100010000DA
:1028F80001010100000100010000010101000001C7
:1029080001010000010001000001010100000000B8
:10291800010000010101000000000036079A004193
:10292800041F0433047D0700000000DE009A003213
:08293800014A01C500DD0000A9
:00000001FF
